:020000040800F2
:1000000078050020C1010008A31100085111000863
:10001000A1110008D5020008151700080000000013
:10002000000000000000000000000000C7110008F0
:10003000D702000800000000C5110008C91100081F
:10004000DB010008DB010008DB010008DB01000820
:10005000DB010008DB010008DB010008DB01000810
:10006000DB010008DB010008DB010008DB01000800
:10007000DB010008DB010008DB010008DB010008F0
:10008000DB010008DB010008DB010008DB010008E0
:10009000DB010008DB010008DB010008DB010008D0
:1000A000DB010008DB010008DB010008DB010008C0
:1000B000DB010008DB010008DB010008DB010008B0
:1000C000DB010008DB010008DB010008DB010008A0
:1000D000DB010008F1160008DB010008FD1600082E
:1000E000DB010008DB010008DB010008DB01000880
:1000F000DB010008DB010008DB010008DB01000870
:10010000DB010008DB010008DB010008DB0100085F
:10011000DB010008B9120008DB010008DB01000860
:10012000DB010008DB010008DB010008DB0100083F
:10013000DB010008DB010008DB010008DB0100082F
:10014000DB010008DB010008DB010008DB0100081F
:10015000DB010008DB010008DB01000809170008CB
:10016000DB010008DB010008DB010008DB010008FF
:10017000DB010008DB010008DB01000800000000D3
:10018000DB010008DB010008DB010008DB010008DF
:10019000DB010008DB010008DB010008DB010008CF
:1001A000DB010008DB010008DB010008DFF80CD0F0
:1001B00000F07EF800480047791700087805002015
:1001C0000648804706480047FEE7FEE7FEE7FEE7F1
:1001D000FEE7FEE7FEE7FEE7FEE7FEE76512000842
:1001E000AD0100082DE9F05F0546002092469B46D0
:1001F00088460646814640241BE02846414647463D
:10020000224600F044F853465A46C01A914110D392
:1002100011461846224600F02BF82D1A67EB01080C
:100220004F4622460120002100F022F817EB00097A
:100230004E41201EA4F10104DFDC484631462A4627
:100240004346BDE8F09F421C10F8011B0029FBD17A
:10025000801A704710B5002200E0521C835C8C5C51
:10026000A34201D1002BF8D1D8B2E1B2401A10BD9F
:10027000202A04DB203A00FA02F100207047914066
:10028000C2F1200320FA03F3194390407047202A5B
:1002900004DB203A21FA02F00021704721FA02F330
:1002A000D040C2F120029140084319467047000037
:1002B000064C074D06E0E06840F0010394E80700B3
:1002C00098471034AC42F6D3FFF774FFB01800081B
:1002D000D0180008FEE7704790F83510022903D0C7
:1002E0008021416501207047052180F835100068A4
:1002F000016821F001010160002070472DE9F84FED
:10030000DFF890B100224FF001084FF0030A4FF0E0
:100310000F090BF1040E00BF0B6808FA02F423402A
:10032000A3426ED14D68022D01D0122D0ED1D508F9
:1003300000EB850CDCF820505607F70E09FA07F69B
:10034000B5430E69BE402E43CCF8206006685500C8
:100350000F790AFA05FC07F0030726EA0C06AF40FE
:10036000374307604E68012E05D0022E03D0112EB0
:1003700001D0122E0ED18768CE6827EA0C07AE4056
:100380003E4386604668A6430C79C4F3001494404B
:1003900034434460C4688E6824EA0C04AE402643AB
:1003A000C6604C68E4006FD53B4C256845F4804539
:1003B0002560246822F0030504F480440094374C3F
:1003C0002E19D6F8084895072F0F09FA07F5AC4300
:1003D000334DA84201D100252EE0324DA84201D173
:1003E000012529E0304DA84201D1022524E02F4DFE
:1003F000A84201D103251FE02D4DA84202D10425BA
:100400001AE041E02B4DA84201D1052514E02A4D08
:10041000A84201D106250FE0284DA84201D10725A9
:100420000AE0274DA84201D1082505E0254DA84244
:1004300001D1092500E00A25BD402543C6F808582A
:10044000DBF800405D464E689C43F60300D51C4334
:100450002C60DEF8004075464E689C43B60300D51C
:100460001C432C600B4D08352C684E689C43F602EB
:1004700000D51C432C60074D0C352C684E689C43FE
:10048000B60200D51C432C60521C102AFFF444AF66
:10049000BDE8F88F003C0140443802400030014084
:1004A000000002400004024000080240000C02402C
:1004B000001002400014024000180240001C0240DC
:1004C000002002400024024001488068704700007C
:1004D000040000200248816802781144816070475E
:1004E000040000200B4810B5016841F40071016060
:1004F000016841F480610160016841F4807101602C
:10050000032000F097F8002000F006F800F024F82F
:10051000002010BD003C024070B50D4D04464FF464
:100520007A712878B1FBF0F00A490968B1FBF0F064
:1005300000F01DFB48B9102C07D200222146501EA6
:1005400000F058F800206C6070BD012070BD000004
:1005500004000020100000201F4808B5016841F485
:1005600080410160006800F4804000901A48001F3C
:10057000016841F080510160006800F080500090F7
:10058000032000F057F8002211466FF00B0000F036
:1005900031F8002211466FF00A0000F02BF800221B
:1005A00011466FF0090000F025F800221146501F97
:1005B00000F020F800221146101F00F01BF8002266
:1005C0001146901E00F016F80022BDE808401146C2
:1005D000501E00F00FB800004438024000F01F0227
:1005E000012191404009800000F1E020C0F8001195
:1005F00070470000F0B40E4B1B680C46C3F3022397
:10060000C3F10705042D00D90425191D072901D2BE
:10061000002300E0DB1E012606FA05F1491E2140F9
:1006200099409E40761E16403143F0BC00F0BABDA2
:100630000CED00E0064900F0070208684FF6FF03E2
:10064000184040EA0220034A104308607047000047
:100650000CED00E00000FA052DE9F0470E4605001C
:1006600065D0DFF81481D8F80000F7B200F00F0071
:10067000B04207D288F80070D8F8000000F00F00F0
:10068000B04254D128683D4C810712D5400703D5AC
:10069000206840F4E05020602878000703D52068E7
:1006A00040F4604020602068A96820F0F000084312
:1006B00020602878C0072DD03049686808390128A3
:1006C00012D0022813D0032811D009688907002905
:1006D0002DDA216821F0030101432160FFF7F4FEC8
:1006E000814641F2883A0EE009688903EFE709681C
:1006F0008901ECE7FFF7E8FEA0EB0901514502D9BB
:100700000320BDE8F0872068696800F00C00B0EBBA
:10071000810FEFD1D8F80010404601F00F01B1422F
:1007200007D90770006800F00F00B04201D0012027
:10073000E7E72878400705D52068E96820F4E0500D
:10074000084320602878000706D52068296920F42E
:10075000604040EAC100206000F03CF82168084A8F
:10076000C1F30311515CC840064908600020FFF73F
:10077000D3FE0020C5E70000003C024008380240DC
:100780009818000810000020014800687047000019
:10079000100000200448054900680968044AC1F3B4
:1007A0008221515CC8407047100000200838024088
:1007B000A81800080448054900680968044AC1F3FC
:1007C0004231515CC8407047100000200838024098
:1007D000A8180008154810B5006810F00C0214485D
:1007E00013D01449042A0FD0082A0ED10F4C241F0D
:1007F0002268236802F03F025B0207D52068C0F33D
:100800008810A0FB010106E0084610BD2168C1F375
:100810008811A1FB00010023FFF7E4FC2168C1F36C
:100820000141491C4900B0FBF1F010BD08380240FD
:100830000024F40040787D012DE9F84F050076D0C2
:100840002878DFF8F8B2BE4CC00749D0DBF80010BA
:100850005846C1F38101012908D00068C0F3810026
:1008600002280AD1201D0068400206D520688003B6
:1008700036D568680028E2D032E06868B0F5803F7D
:1008800010D0B0F5A02F206810D020F48030206068
:10089000206820F4802020606868A0B1FFF714FE73
:1008A00006460CE0206840F48030F4E740F48020F5
:1008B0002060F7E7FFF708FE801B642873D82068E4
:1008C0008003F7D50CE0FFF7FFFD064605E000BF0B
:1008D000FFF7FAFD801B6428F0D820688003F7D466
:1008E0002878DFF8608280074FF000093ED5DBF8FA
:1008F0000010584611F00C0F09D00068C0F38100B9
:1009000002280BD18D48001F0068400206D42068E1
:10091000800715D5E868012809D111E0E868B8B169
:100920000120C8F80000FFF7CFFD064605E002E110
:10093000FFF7CAFD801B0228C0D820688007F7D5C2
:100940002068296920F0F80040EAC10020600DE02D
:10095000C8F80090FFF7B8FD064604E0FFF7B4FDC5
:10096000801B02281FD820688007F7D4287800074A
:1009700022D5724E744869696C3671B101210160EB
:10098000FFF7A2FD074604E0FFF79EFDC01B02280B
:1009900009D830688007F7D50EE0C0F80090FFF75F
:1009A00093FD074605E083E0FFF78EFDC01B02289C
:1009B0007ED830688007F7D42878400768D5DFF8FC
:1009C0007CA100270AF1380ADAF80000C0000BD435
:1009D000DAF8001041F08051CAF80010DAF800008F
:1009E000012700F080500090584E3068C00510D4A8
:1009F000306840F480703060FFF766FD009005E0DD
:100A0000FFF762FD0099401A022851D83068C005EE
:100A1000F6D54A4EA868683601280FD005283068F8
:100A200010D020F001003060306820F00400306009
:100A3000A868B8B1FFF748FD00900FE0306840F0BB
:100A40000100F4E740F004003060F7E7FFF73CFDF9
:100A50000099411A41F28830814264D83068800799
:100A6000F4D50EE0FFF730FD009007E0FFF72CFD16
:100A70000099411A41F28830814254D83068800789
:100A8000F4D42FB1DAF8001021F08051CAF8001028
:100A9000A869C0B3DBF80010C1F3810102294AD074
:100AA0000228484607D0C8F86000FFF70DFD00E0B7
:100AB00039E005463AE04746C8F86000FFF704FD14
:100AC000064604E0FFF700FD801B02282BD82068B3
:100AD0008001F7D4D5E907010843A96A1C4A4908EF
:100AE00002EB01416A6A41EA8211084395F82C1031
:100AF00040EA01611148001F016001203866FFF7DC
:100B0000E3FC054605E014E0FFF7DEFC401B02288D
:100B100009D820688001F7D50BE000BFFFF7D4FCAF
:100B2000401B022802D90320BDE8F88F206880010D
:100B3000F4D40020F8E70120F6E70000083802406E
:100B40000038024000004742800E474200700040DB
:100B50000000FFFF4FF0E0210428086903D020F0D7
:100B600004000861704740F00400FAE7704710B5D0
:100B7000401EB0F1807F01D3012010BD4FF0E02472
:100B800060610F21601700F00DFB0020A0610720BD
:100B90002061002010BD10B5FFF7E8FF10BD7047C1
:100BA00070B5026804461068D168536910F00F0FE1
:100BB00050D003F0010501F4907635435DD0C207B3
:100BC00005D0CA0503D5E26B42F00102E263420799
:100BD00005D5DA0703D0E26B42F00202E263820736
:100BE00005D5DA0703D0E26B42F00402E2630207A4
:100BF00005D5DA0703D0E26B42F00802E263E26B4C
:100C0000002A33D0800604D5880602D5204600F09D
:100C10006FFB20684069E16BC0F38010090700D4C6
:100C200028B3204600F056FB2068416949061AD5D2
:100C3000416921F040014161606BA0B11B49016530
:100C4000606BFFF749FB002810D0606B016DBDE8B9
:100C500070400847830610D58B060ED52046BDE8A8
:100C6000704000F045BB2046FFF799FF70BD20465D
:100C7000FFF795FF0020E06370BD030606D50B0665
:100C800004D52046BDE8704000F0CEBC4006F3D548
:100C90004806F1D5D168204621F04001D1602021DD
:100CA00084F8391000F053FA70BD0000C512000836
:100CB00070B5040004D094F83900002510B106E0A6
:100CC000012070BD84F83850204600F023F824201D
:100CD00084F839002068C16821F40051C1602046C1
:100CE00000F04CFB2068016921F49041016120680B
:100CF000416921F02A0141612068C16841F4005135
:100D0000C160E563202084F8390084F83A000020AF
:100D100070BD0000F0B53E4A03683E49022401253B
:100D2000032608273C4887B093421BD10A6842F447
:100D300080120A60096801F48011059181148DE820
:100D4000F2006946FFF7DAFA04208DE8F1006946FF
:100D50003248FFF7D3FA002211463520FFF74AFC4C
:100D600035201DE02B4ADFF8B8E0121D4FF0070CCC
:100D7000734519D1106840F0100010601068694682
:100D800000F0100005904FF4C0608DE87110254808
:100D9000FFF7B4FA002211462520FFF72BFC25208F
:100DA000FFF71CFC07B0F0BDDFF87CE0734516D1FF
:100DB000086840F4802008600868694600F48020D4
:100DC00005904FF440608DE871101848FFF796FACF
:100DD000002211462720FFF70DFC2720E0E71449E9
:100DE0008B42DFD1116841F020011160116801F0E0
:100DF00020010591C0218DE8F2006946FFF77EFAD7
:100E0000002211464720FFF7F5FB4720C8E7000006
:100E1000005000404038024000080240000C0240F0
:100E20000010014000000240004800400004024061
:100E3000001401402DE9F843044690F83A00994621
:100E400016460D4620284FD195B18EB194F8380042
:100E5000012849D0012084F838000027E7632220C8
:100E600084F83A00FFF730FBA6858046E68531E03E
:100E70000120BDE8F883E08D401EE085A068434670
:100E8000B0F5805F4FF000024FF020012046CDF812
:100E9000009004D000F0F9FB98B10320E9E700F0DE
:100EA000F4FB0028F9D1206900282068406803D0AD
:100EB000C1B225F8011B0DE0C0F3080125F8021BA3
:100EC00008E0206900282068406801D000F07F0019
:100ED00005F8010BE08D0028CDD1202084F83A00E0
:100EE00084F838700020C4E70220C2E790F83A3056
:100EF000202B1DD1D1B1CAB190F83830012B17D0B9
:100F000081628285C2850021C163222280F83A2055
:100F100080F8381001684A6942F001024A610068AD
:100F2000C16841F49071C160002070470120704792
:100F3000022070472DE9F04106685448534B07687A
:100F40005348C033417804784A1CD5B20022BE42CF
:100F500033D121B900269A55761C642EFBDB0D2C6B
:100F600002D05C54457024E042704848C030FFF71E
:100F70006AF9464982B2C0310A23A1F1800000F02B
:100F800089F84248C030FFF75EF9404982B2C0316B
:100F90000A23A1F5807000F07DF83C48C030FFF7CF
:100FA00052F93A4982B2C0310A23A1F1400000F05F
:100FB00071F801223649354861E0344F40373F68C7
:100FC000BE421BD121B900269A55761C642EFBDB4C
:100FD0000D2C02D05C5445700BE042702B48C030A1
:100FE000FFF731F9294982B20A23C031274800F0BE
:100FF00051F8264801222649403040E0234F403F27
:101000003F68BE421BD121B900269A55761C642E3A
:10101000FBDB0D2C02D05C5445700BE042701B488A
:10102000C030FFF710F9194982B20A23C0311748BE
:1010300000F030F815480122154940381FE0134FE1
:1010400080373F68BE421ED121B900269A55761CD2
:10105000642EFBDB0D2C02D05C5445700BE042701B
:101060000A48C030FFF7EFF8084982B20A23C031BE
:10107000064800F00FF80548012205498030BDE818
:10108000F041FFF733BFBDE8F081000054000020BD
:10109000000000202DE9F843044690F839001F466F
:1010A00016460D46202850D1A5B19EB194F83800BF
:1010B00001284AD0012084F838004FF00008C4F815
:1010C0003C80212084F83900FFF7FEF9A684814690
:1010D000E68426E00120BDE8F883E08C401EE08431
:1010E000A0684B46B0F5805F4FF000024FF08001E2
:1010F0002046009703D000F0C8FAE8B90DE000F0F0
:10110000C4FAC8B928882168C0F30800486020697B
:1011100008B16D1C05E0AD1C03E0216815F8010B5A
:101120004860E08C0028D8D14B4600224021204660
:10113000009700F0AAFA08B10320CCE7202084F839
:10114000390084F838800020C5E70220C3E77047E3
:10115000FEE70000114808B5016841F00201016096
:10116000016801F002010091016841F00401016091
:10117000016801F004010091016841F00101016082
:10118000016801F001010091016841F0080101606E
:10119000006800F00800009008BD000030380240F0
:1011A000FEE770470907090E002806DA00F00F0075
:1011B00000F1E02080F8141D704700F1E02080F875
:1011C000001470477047704710B5FFF783F9BDE80A
:1011D0001040FFF7E0BC000010B5204892B000249A
:1011E000016841F080510160006800F0805011906A
:1011F0001B48016821F4404141F4804101600068CE
:10120000069400F4404011900220009001200390C9
:10121000102004906846FFF70FFB00B1FEE70F2097
:10122000CDE90C040E940F9400210CA81094FFF744
:1012300013FA00B1FEE7FFF7A7FA4FF47A71B0FB9B
:10124000F1F0FFF794FC0420FFF784FC0022114624
:10125000501EFFF7CFF912B010BD00004038024019
:10126000007000401048016841F4700101600F48AF
:10127000016841F0010101600C4A0021083211604F
:1012800002680B4B1A400260031D0A4A1A6002688A
:1012900022F48022026005480C30016002495806A1
:1012A000803908607047000088ED00E00038024097
:1012B000FFFFF6FE103000240148FFF771BC00006C
:1012C0001400002010B5806B0021C185C184FFF798
:1012D00066FC10BD0168CA6822F49072CA60016899
:1012E0004A6922F001024A61202180F83A107047D1
:1012F00010B590F83A10222901D0022010BD816863
:10130000B1F5805F11D00169002901681FD04968DB
:1013100001F07F03816A4A1C82620B70C18D491EF5
:101320000904090CC18518D026E00269816A002AE7
:101330000268526805D0D2B20A80816A491C816273
:10134000ECE7C2F308020A80816A891CF7E74A6861
:10135000816A4B1C83620A70E0E70168CA6822F464
:101360009072CA6001684A6922F001024A61202134
:1013700080F83A10FFF7DEFD002010BD2DE9F041A6
:1013800004460068016921F44052E168114301619B
:101390002168C86849F20C6290432369A268E56934
:1013A0001A4363692B431A430243CA6021684869A0
:1013B00020F44072A06910434861E1696425B1F5E9
:1013C000004F9748974A21684FF032083FD091422A
:1013D00001D081427CD1FFF7EDF900EBC00101EBB8
:1013E000001061688900B0FBF1F6FFF7E3F900EB4C
:1013F000C00101EB001061688900B0FBF1F0B0FBA7
:10140000F5F06FF01801484306EB800108EB01107E
:10141000B0FBF5F000F0F006FFF7CCF900EBC001EF
:1014200001EB001061688900B0FBF1F0B0FBF5F052
:1014300006EB0016FFF7BEF900EBC00101EB001050
:1014400061688900B0FBF1F7FFF7B4F9D2E091428F
:1014500001D081423DD1FFF7ADF900EBC00101EBB6
:10146000001061684900B0FBF1F0B0FBF5F0060137
:10147000FFF7A0F900EBC00101EB00106168490023
:10148000B0FBF1F7FFF796F900EBC00101EB00109C
:1014900061684900B0FBF1F0B0FBF5F06FF01801A6
:1014A000484307EB800108EBC100B0FBF5F000F00A
:1014B000F80006EB4006FFF77DF900EBC00101EBF9
:1014C000001061684900B0FBF1F7FFF773F93CE0E9
:1014D00055E0FFF75FF900EBC00101EB0010616818
:1014E0004900B0FBF1F0B0FBF5F00601FFF752F94F
:1014F00000EBC00101EB001061684900B0FBF1F79F
:10150000FFF748F900EBC00101EB001061684900EA
:10151000B0FBF1F0B0FBF5F06FF01801484307EBBA
:10152000800108EBC100B0FBF5F000F0F80006EB1D
:101530004006FFF72FF900EBC00101EB00106168D6
:101540004900B0FBF1F7FFF725F900EBC00101EB13
:10155000001061684900B0FBF1F0B0FBF5F06FF0EE
:101560001801484307EB800108EBC100B0FBF5F020
:1015700000F00700216830448860BDE8F081FFF783
:1015800009F900EBC00101EB001061688900B0FBB4
:10159000F1F6FFF7FFF800EBC00101EB0010616806
:1015A0008900B0FBF1F0B0FBF5F06FF01801484393
:1015B00006EB800108EB0110B0FBF5F000F0F0063F
:1015C000FFF7E8F800EBC00101EB0010616889004B
:1015D000B0FBF1F0B0FBF5F006EB0016FFF7DAF820
:1015E00000EBC00101EB001061688900B0FBF1F76E
:1015F000FFF7D0F800EBC00101EB00106168890033
:10160000B0FBF1F0B0FBF5F06FF01801484307EBC9
:10161000800108EB0110B0FBF5F000F00F00A9E726
:10162000001401400010014090F83910212901D028
:10163000022070478168B1F5805F016A0BD04A1CB7
:101640000262026809785160C18C491E0904090CC4
:10165000C1840ED017E009880268C1F30801516007
:1016600001690029016A02D0491C0162ECE7891C6A
:10167000FBE70168CA6822F08002CA600068C1689E
:1016800041F04001C160002070472DE9F0419846CB
:1016900017460E460446069D1DE0681C1BD02DB162
:1016A000FEF712FFA0EB0800A84214D92068C16819
:1016B00021F4D071C1602068416921F001014161CC
:1016C000202084F8390084F83A00002084F838009B
:1016D0000320BDE8F0812068006836EA000004D0ED
:1016E0000020B842D9D00020F3E70120F9E700003C
:1016F0000148FFF755BA0000540000200148FFF7E9
:101700004FBA0000940000200148FFF749BA0000DA
:10171000D4000020FEE702E008C8121F08C1002A1A
:10172000FAD170477047002001E001C1121F002A62
:10173000FBD1704710B508A000F08EF800280AD041
:1017400006A000F089F8002805D008A000F084F871
:10175000002800D0012010BD4154000041542B4E00
:10176000414D45534C4545500000000041542B501D
:10177000494E31323334000070B5FEF7B3FEFFF747
:101780002BFDFFF7E7FC2F482D494FF4E1360024ED
:101790000160C0E901640C25C460C0E904458461AE
:1017A000C461FFF785FA00B1FEE7264826494030BC
:1017B0000160C0E90164C460C0E904458461C4619A
:1017C000FFF776FA00B1FEE71E482049803001603D
:1017D000C0E90164C460C0E904458461C461FFF7E5
:1017E00067FA00B1FEE717481949403801604FF425
:1017F0001651C0E90114C460C0E904458461C461A4
:10180000FFF756FA00B1FEE7FFF794FF01221149F6
:101810000C48FFF76BFB0B4801220E494030FFF7E5
:1018200065FB084801220B494038FFF75FFB05487C
:10183000012208498030FFF759FB002070BD0000ED
:1018400000100140540000200048004000140140F6
:10185000005000400000002038B50446FEF7F3FCBD
:1018600082B24FF6FF752B4621460948FFF712FC5E
:101870002B46022269460648FFF7DCFA20B905A18B
:101880006846FEF7E7FC08B1002038BD012038BDEE
:10189000140000204F4B000000000000000000007A
:1018A0000102030406070809000000000102030406
:1018B000D0180008000000201400000016170008CF
:1018C000E418000814000020640500002617000832
:1018D00000000000010000001000000000000000F7
:0418E0000024F400EC
:04000005080001AD41
:00000001FF
